:020000040800F2
:10000000500700202D020008B12400088D230008AD
:10001000AD24000849040008812D000800000000FC
:10002000000000000000000000000000252500087E
:10003000F505000800000000212500087D250008C6
:10004000470200084702000847020008470200086C
:10005000470200084702000847020008470200085C
:10006000470200084702000847020008470200084C
:100070004D04000847020008470200084702000834
:10008000470200084702000847020008470200082C
:10009000470200084702000847020008470200081C
:1000A000470200084702000847020008470200080C
:1000B00047020008470200084702000847020008FC
:1000C00047020008470200084702000847020008EC
:1000D000470200084702000847020008712D000887
:1000E00047020008470200084702000847020008CC
:1000F00047020008470200084702000847020008BC
:1001000047020008470200084702000847020008AB
:10011000470200084702000847020008470200089B
:10012000470200084702000847020008470200088B
:10013000470200084702000847020008470200087B
:10014000470200084702000847020008470200086B
:10015000470200084702000847020008470200085B
:10016000470200084702000847020008470200084B
:10017000470200084702000847020008000000008C
:10018000470200084702000800F002F800F03EF8BD
:100190000AA090E8000C82448344AAF10107DA45E2
:1001A00001D100F033F8AFF2090EBAE80F0013F0F6
:1001B000010F18BFFB1A43F001031847382F000046
:1001C000582F0000103A24BF78C878C1FAD85207D7
:1001D00024BF30C830C144BF04680C6070470000C1
:1001E0000023002400250026103A28BF78C1FBD840
:1001F000520728BF30C148BF0B6070471FB502F0DF
:100200005CFF00F0D5F81FBD10B510BD00F0E2F89E
:100210001146FFF7F3FF02F035FF00F000F903B4D9
:10022000FFF7F2FF03BC00F007F900000948804720
:1002300009480047FEE7FEE7FEE7FEE7FEE7FEE7C8
:10024000FEE7FEE7FEE7FEE704480549054A064BE0
:100250007047000041260008890100085001002075
:1002600050070020500300205003002053EA020CE6
:1002700000F069802DE9F04B4FF00006002B1FBF06
:10028000B3FA83F503FA05F424FA05F65E4012BFCB
:100290001643B2FA82F502FA05F4C5F120051EBF35
:1002A00022FA05FC44EA0C04203556EA044C4FEAD5
:1002B000144418BF641C4FF000084FF0000990422E
:1002C00071EB030C39D3002919BFB1FA81F701FA98
:1002D00007F6B0FA80F700FA07F6C7F120071EBF4D
:1002E00020FA07FC46EA0C062037B6FBF4FCA7EB25
:1002F0000507103F07F01F0BCBF120062CFA06F67E
:100300000CFA0BFB44BFB3460026202FA4BF5E4669
:100310004FF0000B5BEA060C08BF4FF0010B19EB26
:100320000B0948EB0608ABFB027C06FB02CC0BFB7F
:1003300003CCC01B71EB0C01C1E70B4602464146E2
:100340004846BDE8F08B13B5084318BF4FF0FF30A7
:100350000146AFF30080BDE81C4070474FF000023B
:1003600000B5134694469646203922BFA0E80C50AB
:10037000A0E80C50B1F12001BFF4F7AF090728BF86
:10038000A0E80C5048BF0CC05DF804EB890028BF02
:1003900040F8042B08BF704748BF20F8022B11F02B
:1003A000804F18BF00F8012B7047704770477047A7
:1003B00070B5064C7C44064D7D4404E0204601683F
:1003C00008448047241DAC42F8D170BD5C2D00006C
:1003D0005C2D0000754600F02BF8AE46050069461E
:1003E000534620F00700854618B020B5FFF72CFFD4
:1003F000BDE820404FF000064FF000074FF0000826
:100400004FF0000BAC46ACE8C009ACE8C009ACE862
:10041000C009ACE8C00921F007018D46704710B54E
:100420000446AFF300802046BDE81040FFF7F7BE5A
:10043000004870471000002001491820ABBEFEE7BD
:100440002600020070470000FFE7FEE780B540F29B
:100450007000C2F2000000F06BF980BD82B0019024
:100460000198007810384AF6AB21CAF6AA21A0FB01
:10047000011000090090009943F2EC00C0F6000062
:10048000405C0199C8650098042807D3FFE70199EB
:100490000868042262F30900886506E0019908688B
:1004A00040F2FF3290438865FFE70198806D02B00B
:1004B0007047000086B0059000208DF81300059865
:1004C000806A03900598806910BBFFE7039802904B
:1004D00003281BD80299DFE801F0020D02180598E5
:1004E00090F82F00C00720B1FFE701208DF813001E
:1004F000FFE70CE00598C06AB0F1C07F04D1FFE7C8
:1005000001208DF81300FFE701E000E0FFE745E080
:1005100005988069B0F5005F25D1FFE70398019049
:1005200003281ED80199DFE801F00206021101201C
:100530008DF8130016E0059890F82F00C00720B141
:10054000FFE701208DF81300FFE70BE00598C06A74
:10055000B0F1C07F04D1FFE701208DF81300FFE761
:1005600000E0FFE719E003980090032804D3FFE7B9
:100570000098032804D00EE001208DF813000BE052
:10058000059890F82F00C00720B1FFE701208DF8F3
:100590001300FFE700E0FFE7FFE7FFE79DF8130028
:1005A00006B0704784B003900291019200930398C3
:1005B0000168086820F480200860009803990968A1
:1005C000486003988068402809D1FFE701980399A3
:1005D00009688860029803990968C86008E0029871
:1005E000039909688860019803990968C860FFE762
:1005F00004B070477047000072B6FFE7FEE70000E6
:1006000080B584B002900298806D019000F016FDD4
:100610000090029890F8350002280DD0FFE702996B
:1006200080204865FFE70299002081F83400FFE749
:1006300001208DF80F0055E002980168086820F04D
:100640001600086002980168486920F0800048613F
:100650000298006C20B9FFE70298806C38B1FFE780
:1006600002980168086820F008000860FFE7029817
:100670000168086820F001000860FFE70298006840
:100680000068C007C8B1FFE700F0D8FC0099401A25
:10069000062811D3FFE7029920204865029903201C
:1006A00081F83500FFE70299002081F83400FFE768
:1006B00003208DF80F0015E0E0E70298C16D3F20A0
:1006C0008840019988600299012081F83500FFE790
:1006D0000299002081F83400FFE7FFE700208DF841
:1006E0000F00FFE79DF80F0004B080BD82B00090BE
:1006F000009890F83500022807D0FFE70099802085
:10070000486501208DF807000EE00099052081F86A
:10071000350000980168086820F001000860FFE7D4
:1007200000208DF80700FFE79DF8070002B0704732
:1007300080B586B005900020039040F20000C2F220
:100740000000006848F2B511C1F64E31A0FB01105F
:10075000800A02900598806D0190019800680490CD
:1007600004980599C96DC840000700281AD5FFE70D
:100770000598006800684007002812D5FFE7059833
:100780000168086820F0040008600598C16D082021
:100790008840019988600599486D40F001004865DE
:1007A000FFE7FFE704980599C96DC840C007A0B1ED
:1007B000FFE7059800684069000600280CD5FFE7B0
:1007C0000598C16D01208840019988600599486DA0
:1007D00040F002004865FFE7FFE704980599C96DFE
:1007E000C8404007002814D5FFE705980068006856
:1007F000800700280CD5FFE70598C16D04208840CC
:10080000019988600599486D40F004004865FFE74C
:10081000FFE704980599C96DC840C006002847D570
:10082000FFE7059800680068000700283FD5FFE74C
:100830000598C16D1020884001998860059800686E
:100840000068400300281AD5FFE705980068006893
:100850000003002809D4FFE70598006C20B1FFE7EA
:100860000598016C8847FFE708E00598806C20B187
:10087000FFE70598816C8847FFE7FFE716E00598DA
:1008800000680068C005002807D4FFE705980168E4
:10089000086820F008000860FFE70598006C20B1A8
:1008A000FFE70598016C8847FFE7FFE7FFE7FFE7F1
:1008B00004980599C96DC8408006002840F18D80D4
:1008C000FFE7059800680068C006002840F18480B2
:1008D000FFE70598C16D2020884001998860059840
:1008E00090F83500052834D1FFE7059801680868BD
:1008F00020F01600086005980168486920F0800023
:1009000048610598006C20B9FFE70598806C38B104
:10091000FFE705980168086820F008000860FFE715
:100920000598C16D3F208840019988600599012094
:1009300081F83500FFE70599002081F83400FFE7D2
:100940000598006D20B1FFE70598016D8847FFE726
:100950007BE0059800680068400300281AD5FFE78F
:100960000598006800680003002809D4FFE705988F
:10097000406C20B1FFE70598416C8847FFE708E02D
:100980000598C06B20B1FFE70598C16B8847FFE76A
:10099000FFE720E0059800680068C005002811D432
:1009A000FFE705980168086820F0100008600599C5
:1009B000012081F83500FFE70599002081F8340017
:1009C000FFE7FFE70598C06B20B1FFE70598C16B13
:1009D0008847FFE7FFE7FFE7FFE70598406DA0B313
:1009E000FFE70598406DC00730B3FFE70599052084
:1009F00081F8350005980168086820F0010008605A
:100A0000FFE70398013003900299884201D9FFE77C
:100A100007E0FFE7059800680068C0070028F0D1EC
:100A2000FFE70599012081F83500FFE705990020CF
:100A300081F83400FFE7FFE70598C06C20B1FFE7BD
:100A40000598C16C8847FFE7FFE706B080BD00004E
:100A500080B586B004900020039000F0EFFA029079
:100A6000049820B9FFE701208DF81700A3E004984F
:100A7000406A08B1FFE7FFE70499022081F83500DA
:100A8000FFE70499002081F83400FFE7049801682B
:100A9000086820F001000860FFE70498006800681B
:100AA000C00790B1FFE700F0C9FA0299401A062882
:100AB0000AD3FFE70499202048650499032081F8B0
:100AC00035008DF8170076E0E7E7049800680068C5
:100AD0000390039848F23F01CFF2100108400390C1
:100AE000049900914868D1F808C0CB680A6940EAC7
:100AF0000C00184310434A6910438A691043CA69BD
:100B00001043096A01430398084303900498406A1C
:100B1000042808D1FFE70499C86A096B01430398C8
:100B200008430390FFE70398049909680860049854
:100B3000006840690390039820F007000390049830
:100B4000416A0398084303900498406A04281AD124
:100B5000FFE70498816A0398084303900498C06AE9
:100B600080B1FFE70498FFF7A5FC50B1FFE70499B7
:100B7000402048650499012081F835008DF8170060
:100B800019E0FFE7FFE703980499096848610498B2
:100B9000FFF764FC01900498C16D3F2088400199E3
:100BA0008860049900204865049A012182F8351074
:100BB0008DF81700FFE79DF8170006B080BD000014
:100BC00080B588B0069005910492039300208DF8BB
:100BD0000B000698806D0190FFE7069890F83400AE
:100BE000012804D1FFE702208DF81F0045E0069997
:100BF000012081F83400FFE7FFE7069890F8350000
:100C000001282BD1FFE70699022081F835000699CB
:100C10000020486506980599049A039BFFF7C2FCDB
:100C20000698C16D3F208840019988600698016848
:100C3000086840F0160008600698006C38B1FFE7BD
:100C400006980168086840F008000860FFE7069809
:100C50000168086840F00100086009E0FFE70699B4
:100C6000002081F83400FFE702208DF80B00FFE739
:100C70009DF80B008DF81F00FFE79DF81F0008B0DE
:100C800080BD00008EB00D900C9100200A9009905C
:100C900008900B90FFE70B980F2800F2CC81FFE73C
:100CA0000B99012088400A900C9800680A99084026
:100CB000099009980A99884240F0B881FFE70C989A
:100CC000406800F00300012807D0FFE70C98406857
:100CD00000F0030002282FD1FFE70D9880680890EC
:100CE0000B984100032000FA01F10898884308900E
:100CF0000C98C0680B99490000FA01F10898084364
:100D0000089008980D9988600D98406808900B9994
:100D1000012000FA01F10898884308900C98406877
:100D2000C0F300100B9900FA01F1089808430890ED
:100D300008980D994860FFE70C98406800F00300A0
:100D4000032818D0FFE70D98C06808900B98410061
:100D5000032000FA01F10898884308900C988068F5
:100D60000B99490000FA01F1089808430890089887
:100D70000D99C860FFE70C98406800F00300022856
:100D800026D1FFE70D980B996FF0030202EA51019B
:100D90000844006A08900B9800F0070081000F20BB
:100DA00000FA01F10898884308900C9800690B99A3
:100DB00001F00701890000FA01F108980843089042
:100DC00008980D990B9B02EA530211440862FFE751
:100DD0000D98006808900B984100032000FA01F17B
:100DE0000898884308900C98406800F003000B991D
:100DF000490000FA01F108980843089008980D99F5
:100E000008600C9880798007002800F00E81FFE7C9
:100E1000FFE70020079043F64400C4F20200016897
:100E200041F480410160006800F480400790079819
:100E3000FFE70B9820F0030043F60801C4F201011C
:100E4000405808900B9800F0030081000F2000FA32
:100E500001F10898884308900D980021C4F202011E
:100E6000884203D1FFE7002006905EE00D9840F233
:100E70000041C4F20201884203D1FFE7012005903E
:100E800050E00D9840F60001C4F20201884203D1FF
:100E9000FFE70220049042E00D9840F60041C4F2C2
:100EA0000201884203D1FFE70320039034E00D984C
:100EB00041F20001C4F20201884203D1FFE704209D
:100EC000029026E00D9841F20041C4F202018842EE
:100ED00003D1FFE70520019018E00D9841F60001CD
:100EE000C4F20201884203D1FFE7062000900AE025
:100EF0000D9941F60042C4F202020820914208BF57
:100F000007200090FFE700980190FFE7019802900A
:100F1000FFE702980390FFE703980490FFE7049827
:100F20000590FFE705980690FFE70698C0B20B9979
:100F300001F00301890000FA01F1089808430890C4
:100F400008980B9921F0030143F60802C4F201024C
:100F5000885043F60840C4F20100006808900999DF
:100F60000898884308900C988079C006002805D519
:100F7000FFE70999089808430890FFE7089843F6A7
:100F80000841C4F20101086043F60C40C4F20100BC
:100F90000068089009990898884308900C9880790F
:100FA0008006002805D5FFE70999089808430890AE
:100FB000FFE7089843F60C41C4F20101086043F6CC
:100FC0000440C4F201000068089009990898884319
:100FD00008900C9880798007002805D5FFE70999CB
:100FE000089808430890FFE7089843F60441C4F2C4
:100FF0000101086043F60040C4F201000068089057
:1010000009990898884308900C988079C00728B1FE
:10101000FFE70999089808430890FFE7089843F606
:101020000041C4F201010860FFE7FFE7FFE70B980A
:1010300001300B902FE60EB07047000040F24810D0
:10104000C2F200000068704740F20400C2F20000E3
:10105000027840F24811C2F20001086810440860AA
:101060007047000080B543F60041C4F202010868F1
:1010700040F400700860086840F480600860086808
:1010800040F480700860032000F08AF80F2000F020
:1010900005F800F03BF8002080BD000080B582B06C
:1010A000009040F20000C2F20000006840F204012B
:1010B000C2F200010A784FF47A71B1FBF2F1B0FB91
:1010C000F1F000F0A5FD20B1FFE701208DF8070049
:1010D00018E000980F280DD8FFE700994FF0FF3077
:1010E000002200F043F8009840F20801C2F200012B
:1010F000086003E001208DF8070003E000208DF870
:101100000700FFE79DF8070002B080BD82B0FFE74F
:101110000020019043F64400C4F20200016841F44B
:1011200080410160006800F4804001900198FFE771
:10113000FFE70020009043F64000C4F2020001687F
:1011400041F080510160006800F0805000900098EC
:10115000FFE702B07047000080B582B08DF807004D
:101160009DF9070001F026FF02B080BD80B586B072
:101170008DF81700049103920020029001F032FFD5
:1011800002909DF91700019002980499039A01F0CA
:1011900091F90146019801F02DFF06B080BD0000D5
:1011A00080B582B00190019801F046FF02B080BD89
:1011B00080B584B002900191029820B9FFE7012028
:1011C0008DF80F0021E1019843F60041C4F20201BD
:1011D000096801F00701884212D9FFE7019943F637
:1011E0000040C4F202000170006800F0070001999D
:1011F000884204D0FFE701208DF80F0005E1FFE7EA
:1012000002980078800700282AD5FFE70298007826
:101210004007002809D5FFE743F60801C4F20201A0
:10122000086840F4E0500860FFE702980078000783
:10123000002809D5FFE743F60801C4F20201086857
:1012400040F460400860FFE743F60801C4F2020181
:10125000086820F0F000029A926810430860FFE7E7
:1012600002980078C00700286ED0FFE70298406817
:10127000012811D1FFE743F60000C4F20200006824
:1012800000F400310020B0EB514F04D1FFE7012002
:101290008DF80F00B9E02CE002984068022805D0D4
:1012A000FFE702984068032811D1FFE743F60000EA
:1012B000C4F20200006800F000710020B0EB516F32
:1012C00004D1FFE701208DF80F009EE010E043F607
:1012D0000000C4F20200006800F002010020B0EB40
:1012E000510F04D1FFE701208DF80F008DE0FFE7DB
:1012F000FFE743F60801C4F20201086820F003008A
:10130000029A526810430860FFF798FE0090FFE7CA
:1013100043F60800C4F20200006800F00C000299D5
:101320004968B0EB810F0ED0FFE7FFF787FE009909
:10133000401A41F28931884204D3FFE703208DF837
:101340000F0062E0E4E7FFE7019843F60041C4F2D2
:101350000201096801F00701884212D2FFE70199F2
:1013600043F60040C4F202000170006800F007007C
:101370000199884204D0FFE701208DF80F0044E076
:10138000FFE702980078400700280CD5FFE743F6F6
:101390000801C4F20201086820F4E050029AD26801
:1013A00010430860FFE702980078000700280DD579
:1013B000FFE743F60801C4F20201086820F4604028
:1013C000029A126940EAC2000860FFE700F04CF898
:1013D00043F60801C4F202010968C9B20A0943F2DE
:1013E000D401C0F60001895CC84040F20001C2F29D
:1013F0000001086040F20800C2F200000068FFF738
:101400004DFE00208DF80F00FFE79DF80F0004B09F
:1014100080BD000040F20000C2F20000006870478A
:1014200080B5FFF7F7FF43F60801C4F2020109682F
:10143000C1F3822243F2E401C0F60001895CC84096
:1014400080BD000080B5FFF7E5FF43F60801C4F258
:101450000201096889B24A0B43F2E401C0F60001B7
:10146000895CC84080BD000080B586B00020059032
:1014700004900390029043F60800C4F20200006852
:1014800000F00C000146019140B1FFE701980428EB
:101490000AD0FFE7019808280CD04FE042F2004044
:1014A000C0F2F40002904FE041F60030C0F2B70005
:1014B000029049E043F60400C4F20200016801F022
:1014C0003F01059100684002002813D5FFE743F66D
:1014D0000400C4F202000068C0F3881041F6003135
:1014E000C0F2B701A0FB0101059A0023FEF7BEFE82
:1014F000049012E043F60400C4F202000068C0F356
:10150000881042F20041C0F2F401A0FB0101059AEB
:101510000023FEF7ABFE0490FFE743F60400C4F29D
:101520000200006800F44031022000EBD13003904B
:1015300004980399B0FBF1F0029005E042F20040FC
:10154000C0F2F4000290FFE7029806B080BD0000F0
:1015500080B586B00490049820B9FFE701208DF88B
:10156000170050E304980078C007002800F0A58019
:10157000FFE743F60800C4F20200006800F00C0028
:10158000042813D0FFE743F60800C4F20200006805
:1015900000F00C0008281ED1FFE743F60400C4F257
:1015A000020000684002002815D5FFE743F600005E
:1015B000C4F20200006800F400310020B0EB514F8B
:1015C00008D0FFE70498406820B9FFE701208DF8B4
:1015D000170018E370E0FFE704984068B0F5803F1B
:1015E00009D1FFE743F60001C4F20201086840F4A4
:1015F0008030086020E004984068B0F5A02F0DD13D
:10160000FFE743F60001C4F20201086840F48020BD
:101610000860086840F4803008600CE043F6000180
:10162000C4F20201086820F480300860086820F4E1
:1016300080200860FFE7FFE7FFE704984068E8B113
:10164000FFE7FFF7FBFC0390FFE743F60000C4F25F
:101650000200006800F400310020B0EB514F0CD1C3
:10166000FFE7FFF7EBFC0399401A652804D3FFE777
:1016700003208DF81700C6E2E7E71CE0FFF7DEFC69
:101680000390FFE743F60000C4F20200006800F494
:1016900000310020B0EB514F0CD0FFE7FFF7CEFC3C
:1016A0000399401A652804D3FFE703208DF817003B
:1016B000A9E2E7E7FFE7FFE7FFE704980078800784
:1016C000002840F19680FFE743F60800C4F20200CC
:1016D000006810F00C0F13D0FFE743F60800C4F2C7
:1016E0000200006800F00C0008282CD1FFE743F648
:1016F0000400C4F2020000684002002823D4FFE77F
:1017000043F60000C4F20200006800F0020100206D
:10171000B0EB510F09D0FFE70498C068012804D04E
:10172000FFE701208DF817006DE243F60001C4F2D7
:101730000201086820F0F800049A126940EAC20029
:101740000860FFE754E00498C06870B3FFE7002129
:10175000C4F2472101200860FFF770FC0390FFE707
:1017600043F60000C4F20200006800F0020100200D
:10177000B0EB510F0CD1FFE7FFF760FC0399401A63
:10178000032804D3FFE703208DF817003BE2E7E7C7
:1017900043F60001C4F20201086820F0F800049A40
:1017A000126940EAC200086021E00021C4F247212A
:1017B00000200860FFF742FC0390FFE743F60000BB
:1017C000C4F20200006800F002010020B0EB510FEB
:1017D0000CD0FFE7FFF732FC0399401A032804D32B
:1017E000FFE703208DF817000DE2E7E7FFE7FFE7CB
:1017F000FFE704980078000700284BD5FFE704981E
:10180000406918B3FFE740F68061C4F24721012028
:101810000860FFF713FC0390FFE743F67400C4F27F
:101820000200006800F002010020B0EB510F0CD163
:10183000FFE7FFF703FC0399401A032804D3FFE7EF
:1018400003208DF81700DEE1E7E722E040F6806133
:10185000C4F2472100200860FFF7F0FB0390FFE788
:1018600043F67400C4F20200006800F00201002098
:10187000B0EB510F0CD0FFE7FFF7E0FB0399401AE4
:10188000032804D3FFE703208DF81700BBE1E7E747
:10189000FFE7FFE7049800784007002840F1CE807A
:1018A000FFE700208DF8070043F64000C4F2020075
:1018B0000068C000002815D4FFE7FFE70020009073
:1018C00043F64000C4F20200016841F0805101601B
:1018D000006800F0805000900098FFE701208DF82C
:1018E0000700FFE747F20000C4F200000068C005EF
:1018F000002822D4FFE747F20001C4F20001086883
:1019000040F480700860FFF799FB0390FFE747F20F
:101910000000C4F200000068C00500280CD4FFE7F6
:10192000FFF78CFB0399401A032804D3FFE7032039
:101930008DF8170067E1EAE7FFE7FFE704988068A2
:10194000012809D1FFE743F67001C4F202010868DB
:1019500040F0010008601FE00498806805280DD160
:10196000FFE743F67001C4F20201086840F004008A
:101970000860086840F0010008600CE043F6700160
:10198000C4F20201086820F001000860086820F035
:1019900004000860FFE7FFE7FFE704988068F8B1FC
:1019A000FFE7FFF74BFB0390FFE743F67000C4F23D
:1019B0000200006800F002010020B0EB510F0ED1D0
:1019C000FFE7FFF73BFB0399401A41F28931884258
:1019D00004D3FFE703208DF8170014E1E5E71EE0CC
:1019E000FFF72CFB0390FFE743F67000C4F2020000
:1019F000006800F002010020B0EB510F0ED0FFE7AD
:101A0000FFF71CFB0399401A41F28931884204D345
:101A1000FFE703208DF81700F5E0E5E7FFE79DF805
:101A20000700012809D1FFE743F64001C4F2020193
:101A3000086820F080500860FFE7FFE7049880699D
:101A4000002800F0DC80FFE743F60800C4F2020043
:101A5000006800F00C00082800F08580FFE704987B
:101A6000806902285CD1FFE76021C4F24721002091
:101A70000860FFF7E3FA0390FFE743F60000C4F2C3
:101A80000200006800F000710020B0EB516F0CD034
:101A9000FFE7FFF7D3FA0399401A032804D3FFE7BF
:101AA00003208DF81700AEE0E7E70499C869D1F884
:101AB00020C04B6A8A6A40EA0C0040EA8310D203D5
:101AC0004FF6FF739A43A2F580321043C96A40EA89
:101AD000016043F60401C4F2020108606021C4F20F
:101AE000472101200860FFF7A9FA0390FFE743F6BA
:101AF0000000C4F20200006800F000710020B0EBAA
:101B0000516F0CD1FFE7FFF799FA0399401A0328A8
:101B100004D3FFE703208DF8170074E0E7E721E026
:101B20006021C4F2472100200860FFF787FA039084
:101B3000FFE743F60000C4F20200006800F0007105
:101B40000020B0EB516F0CD0FFE7FFF777FA039955
:101B5000401A032804D3FFE703208DF8170052E052
:101B6000E7E7FFE74AE004988069012804D1FFE72E
:101B700001208DF8170046E043F60400C4F202008D
:101B80000068029004988069012831D0FFE702982C
:101B900000F480000499C969884229D1FFE70298BE
:101BA00000F03F000499096A884221D1FFE70298BA
:101BB00047F6C07108400499496AB0EB811F17D1FC
:101BC000FFE7029800F440300499896AC9034FF690
:101BD000FF729143A1F58031884209D1FFE7029855
:101BE00000F070600499C96AB0EB016F04D0FFE7A0
:101BF00001208DF8170006E0FFE7FFE7FFE7002070
:101C00008DF81700FFE79DF8170006B080BD0000B3
:101C100080B582B00190019800F086FC02B080BDD2
:101C200080B586B004900391ADF80A20049890F82E
:101C30004200202848D1FFE7039820B1FFE7BDF814
:101C40000A0020B9FFE701208DF8170040E0049951
:101C50000120086304990020486304980399BDF8A3
:101C60000A2000F0A3FF8DF809000498006B0128FA
:101C700021D1FFE7FFE70020019004980068006889
:101C8000019004980068406801900198FFE7FFE721
:101C9000FFE70498006850E8030F40F01000009040
:101CA000FFE700990498026842E803100028F0D189
:101CB000FFE7FFE703E001208DF80900FFE79DF84B
:101CC00009008DF8170003E002208DF81700FFE7E8
:101CD0009DF8170006B080BD80B584B00390ADF8C4
:101CE0000A10039840F2D001C2F20001884214D1D8
:101CF000FFE740F2D000C2F2000040F23411C2F21D
:101D0000000101911222FFF78BFF019940F2181098
:101D1000C2F2000001F066F8FFE704B080BD0000E9
:101D200081B0009001B0704780B592B011901198C9
:101D300000680068109011980068C0680F901198B2
:101D4000006840690E9000200D900C90109800F0F3
:101D50000F000D900D9888B9FFE79DF840008006B0
:101D600000280AD5FFE79DF83C008006002804D52E
:101D7000FFE7119800F0C8FD02E2FFE70D98002888
:101D800000F0C280FFE79DF83800C00738B9FFE7D0
:101D9000BDF83C0010F4907F00F0B680FFE79DF89E
:101DA0004000C00758B1FFE79DF83D00C00730B1C3
:101DB000FFE71199486C40F001004864FFE79DF887
:101DC0004000400700280BD5FFE79DF83800C0070A
:101DD00030B1FFE71199486C40F002004864FFE71A
:101DE0009DF84000800700280BD5FFE79DF83800DC
:101DF000C00730B1FFE71199486C40F00400486417
:101E0000FFE79DF840000007002811D5FFE79DF887
:101E10003C008006002805D4FFE79DF83800C00785
:101E200030B1FFE71199486C40F008004864FFE7C3
:101E30001198406C002866D0FFE79DF840008006AE
:101E400000280AD5FFE79DF83C008006002804D54D
:101E5000FFE7119800F058FDFFE71198006840690E
:101E6000C0F380100C901198406C0007002804D437
:101E7000FFE70C9800283ED0FFE7119800F0CAFC5D
:101E8000119800684069400600282FD5FFE7FFE75A
:101E9000FFE71198006850E8050F20F040000B9014
:101EA000FFE70B991198026842E805100028F0D16D
:101EB000FFE7FFE71198C06B98B1FFE71198C16B7E
:101EC00042F25560C0F6000008651198C06BFEF73D
:101ED0000DFC28B1FFE71198C06B016D8847FFE743
:101EE00003E01198FFF71CFFFFE703E01198FFF7ED
:101EF00017FFFFE706E01198FFF712FF1199002086
:101F00004864FFE7FFE73BE11198006B012840F0D0
:101F10001781FFE79DF84000C006002840F11081BE
:101F2000FFE79DF83C00C006002840F10981FFE76B
:101F3000FFE700200A901198006800680A90119845
:101F4000006840680A900A98FFE7119800684069A5
:101F50004006002840F19A80FFE71198C06B0068A6
:101F60004068ADF82600BDF82600002875D0FFE7D0
:101F7000BDF826001199898D88426EDAFFE7BDF819
:101F800026001199C8851198C06BC069B0F5807F93
:101F900058D0FFE7FFE7FFE71198006850E8030F0C
:101FA00020F480700890FFE708991198026842E8D1
:101FB00003100028F0D1FFE7FFE7FFE7FFE71198E4
:101FC000006850E8050F20F001000790FFE707992F
:101FD0001198026842E805100028F0D1FFE7FFE7FA
:101FE000FFE7FFE71198006850E8050F20F0400078
:101FF0000690FFE706991198026842E8051000284C
:10200000F0D1FFE7FFE71199202081F842001199F4
:1020100000200863FFE7FFE71198006850E8030F0E
:1020200020F010000590FFE705991198026842E83A
:1020300003100028F0D1FFE7FFE71198C06BFEF70F
:10204000DFFAFFE71199022048631198818DC28D54
:10205000891A89B2FFF740FE17E0BDF826001199F2
:10206000898D884210D1FFE71198C06BC069B0F527
:10207000807F08D1FFE71199022048631198818D74
:10208000FFF72AFEFFE7FFE7FFE779E01199888D68
:10209000C98D401AADF812001198C08D00284ED09D
:1020A000FFE7BDF81200002849D0FFE7FFE7FFE790
:1020B0001198006850E8030F20F490700390FFE738
:1020C00003991198026842E803100028F0D1FFE755
:1020D000FFE7FFE7FFE71198006850E8050F20F0E1
:1020E00001000290FFE702991198026842E805108A
:1020F0000028F0D1FFE7FFE71199202081F8420086
:10210000119900200863FFE7FFE71198006850E885
:10211000030F20F010000190FFE701991198026869
:1021200042E803100028F0D1FFE7FFE711990220F1
:1021300048631198BDF81210FFF7CEFDFFE71FE0CE
:102140009DF84000000600280AD5FFE79DF83C00F6
:102150000006002804D5FFE7119800F0BFFD0FE04E
:102160009DF84000400600280AD5FFE79DF83C0096
:102170004006002804D5FFE7119800F095FBFFE723
:1021800012B080BD80B582B00090009820B9FFE702
:1021900001208DF8070040E00098806908B1FFE752
:1021A00000E0FFE7009890F8410040B9FFE7009990
:1021B000002081F84000009800F034F8FFE7009913
:1021C000242081F8410000980168C86820F400507C
:1021D000C860009800F04CFC00980168086920F481
:1021E0009040086100980168486920F02A00486121
:1021F00000980168C86840F40050C8600099002049
:102200004864009A202182F84110009A82F8421016
:10221000009948638DF80700FFE79DF8070002B0BA
:1022200080BD000080B590B00F9000200E900D9002
:102230000C900B900A900F98006844F60001C4F2CD
:102240000001884240F09380FFE7FFE700200990FB
:1022500043F64000C4F20200016841F480210160AD
:10226000006800F4802009900998FFE7FFE700204C
:10227000089043F63000C4F20200016841F0040106
:102280000160006800F0040008900898FFE7FFE78D
:102290000020079043F63000C4F20200016841F0CC
:1022A00002010160006800F0020007900798FFE754
:1022B0004FF440600A90022001900B90002005909E
:1022C0000C90032002900D90072003900E9040F692
:1022D0000000C4F202000AA90491FEF7D3FCDDF865
:1022E00004C0029A03980499059B4FF4C04ECDF8A0
:1022F00028E0CDF82CC00C930D920E9040F20040D7
:10230000C4F20200FEF7BEFC059940F27000C2F272
:102310000000069046F22802C4F2020202604FF06A
:10232000006242608160C1604FF48062026141617D
:102330008161C16101624162FEF78AFB18B1FFE76A
:10234000FEF75AF9FFE7FFE70F9840F27001C2F27B
:102350000001C1630F988863FFE7272000900022E7
:102360001146FEF703FF0098FEF7F6FEFFE710B0F8
:1023700080BD000081B0009001B0704781B0009036
:1023800001B0704781B0009001B07047FFE7FEE7F1
:1023900080B582B0FFE70020019043F63000C4F220
:1023A0000200016841F400110160006800F40010AF
:1023B00001900198FFE70C20009000221146FEF7E3
:1023C000D5FE0098FEF7C8FE02B080BD84B0FFE7DE
:1023D0000020039043F63000C4F20200016841F08F
:1023E00001010160006800F0010003900398FFE71D
:1023F000FFE70020029043F63000C4F202000168BB
:1024000041F004010160006800F0040002900298AD
:10241000FFE7FFE70020019043F63000C4F202001E
:10242000016841F080010160006800F080000190C7
:102430000198FFE7FFE70020009043F63000C4F268
:102440000200016841F002010160006800F0020032
:1024500000900098FFE704B07047000080B582B09C
:1024600040F2D000C2F20000019044F60001C4F234
:102470000001016048F2A061C0F2010141604FF427
:10248000805181600021C1604FF4806202610C22A2
:1024900042614FF440728261C161FFF773FE18B16F
:1024A000FFE7FEF7A9F8FFE702B080BDFFE7FEE710
:1024B000FFE7FEE788B0079006910592079800F0C5
:1024C000070004900498C0F10700052803D3FFE734
:1024D0000420019004E00498C0F107000190FFE798
:1024E0000198039004980430062803D8FFE70020E1
:1024F000009003E0049803380090FFE700980290F2
:1025000006980399012202FA01F101390840029B61
:10251000984005999A40013A1140084308B0704725
:10252000704700007047000080B582B000900098AE
:102530000138B0F1807F03D3FFE70120019019E05B
:10254000009801384EF21401CEF2000108604FF0FD
:10255000FF300F2100F04EFD4EF21801CEF20001C7
:10256000002008604EF21002CEF200020721116036
:102570000190FFE7019802B080BD000080B5FEF732
:1025800063FD80BD80B594B008A83021FDF7E6FE5C
:10259000002007900690059004900390FFE700202C
:1025A000029043F64000C4F20200016841F08051FD
:1025B0000160006800F0805002900298FFE7FFE79A
:1025C0000020019047F20000C4F20000016841F4CD
:1025D00080410160006800F4804001900198FFE7AD
:1025E000012008904FF48030099002200E904FF4A3
:1025F00080010F9106211091A821119112900420C1
:10260000139008A8FEF7A4FF18B1FFE7FDF7F4FF49
:10261000FFE70F20039002200490002005904FF464
:10262000A05006904FF48050079003A80521FEF7B4
:10263000BFFD18B1FFE7FDF7DFFFFFE714B080BD76
:102640004EF68851CEF20001086840F47000086030
:102650007047000080B582B001900198806B0090B7
:1026600000990020C8850098FFF75AFB02B080BD92
:1026700080B584B00390002002900398806B019095
:10268000019800684069C0B2C0090290019890F8B2
:10269000410021280AD1FFE7029838B1FFE70199EC
:1026A0000020C884019800F013F9FFE70198006842
:1026B0004069C0F380100290019890F842002228EF
:1026C0000AD1FFE7029838B1FFE701990020C885D9
:1026D000019800F09FF8FFE70199486C40F0100066
:1026E00048640198FFF71CFB04B080BD80B586B03C
:1026F00005900598806B0490059800680068C005F7
:1027000000285AD4FFE704990020C885FFE7FFE7B7
:102710000498006850E8030F20F480700390FFE7EE
:1027200003990498026842E803100028F0D1FFE7FB
:10273000FFE7FFE7FFE70498006850E8050F20F087
:1027400001000290FFE702990498026842E8051030
:102750000028F0D1FFE7FFE7FFE7FFE704980068F4
:1027600050E8050F20F040000190FFE70199049820
:10277000026842E805100028F0D1FFE7FFE704995E
:10278000202081F842000498006B012814D1FFE753
:10279000FFE7FFE70498006850E8030F20F01000FF
:1027A0000090FFE700990498026842E803100028AF
:1027B000F0D1FFE7FFE7FFE7FFE704990020486358
:1027C0000498006B012805D1FFE70498818DFFF77D
:1027D00083FA03E00498FFF7CDFDFFE706B080BD64
:1027E00080B582B001900198806B00900099012023
:1027F00048630098006B012806D1FFE70098818D9F
:102800004908FFF769FA03E00098FFF7B7FDFFE713
:1028100002B080BD84B00390FFE7FFE70398006833
:1028200050E8030F20F490700290FFE7029903989C
:10283000026842E803100028F0D1FFE7FFE7FFE756
:10284000FFE70398006850E8050F20F001000190B1
:10285000FFE701990398026842E805100028F0D1CB
:10286000FFE7FFE70398006B012814D1FFE7FFE7BC
:10287000FFE70398006850E8030F20F01000009075
:10288000FFE700990398026842E803100028F0D19E
:10289000FFE7FFE7FFE70399202081F84200039953
:1028A0000020086304B0704780B582B001900198A1
:1028B0000168C86820F04000C8600199202081F8B4
:1028C00041000198FFF75EFD002002B080BD0000CE
:1028D00082B00190FFE7FFE70198006850E8030F1E
:1028E00020F0C0000090FFE700990198026842E8DC
:1028F00003100028F0D1FFE7FFE70199202081F8BD
:10290000410002B07047000080B586B004900020FE
:1029100003900290049890F84200222840F0A08092
:10292000FFE704988068B0F5805F13D1FFE7049853
:10293000006978B9FFE70498806A029004980068FB
:1029400040686FF35F20029908800499886A02301A
:10295000886223E00498806A039004988068B0F548
:10296000805F08D0FFE70498806850B9FFE70498BB
:10297000006930B9FFE7049800684068039908705F
:1029800007E004980068406800F07F000399087031
:10299000FFE70499886A01308862FFE70499C88DCF
:1029A0000138C8850004002856D1FFE70498016863
:1029B000C86820F02000C86004980168C86820F446
:1029C0008070C86004980168486920F0010048617F
:1029D0000499202081F8420004990020486304985B
:1029E000006B012830D1FFE7049900200863FFE75E
:1029F000FFE70498006850E8030F20F010000190F2
:102A0000FFE701990498026842E803100028F0D11A
:102A1000FFE7FFE7049800680068C00600280ED5AD
:102A2000FFE7FFE70020009004980068006800902E
:102A300004980068406800900098FFE7FFE704985A
:102A4000818DFFF749F903E00498FFF793FCFFE756
:102A500000208DF8170007E000208DF8170003E034
:102A600002208DF81700FFE79DF8170006B080BD23
:102A700080B586B0059005980068006920F4405044
:102A8000059A1168D26810430861059988680B6936
:102A90004A69C969184310430843049005980068BF
:102AA000C06849F20C618843049908430599096894
:102AB000C86005980068406920F44070059A116864
:102AC0009269104348610598006841F20001C4F220
:102AD0000101884209D0FFE70598006841F20041F2
:102AE000C4F20101884204D1FFE7FEF7ABFC03907A
:102AF00003E0FEF795FC0390FFE70598C069B0F589
:102B0000004F29D1FFE703981921A0FB0101059A85
:102B10001368029353685A00DB0FFDF7A7FB029975
:102B2000864648F21F53C5F2EB13AEFB0320420961
:102B300010014FF0640C02FB1CEC322202EBCC02C1
:102B4000A2FB0332F82303EA521300EB4300C2F363
:102B500042121044886026E003981921A0FB01016D
:102B6000059A1368019353689A009B0FFDF77EFB4B
:102B70000199844648F21F52C5F2EB12ACFB0230B9
:102B80004309642003FB10CC322000EB0C10A0FBA7
:102B90000202F02000EA521000EB0310C2F34312CD
:102BA00010448860FFE706B080BD000080B58AB0A1
:102BB00008900791ADF81A20079808998862BDF827
:102BC0001A0008998885089900204864089A2221EB
:102BD00082F842100899CA6B42F2ED61C0F600011A
:102BE000D1630899CA6B42F2E171C0F60001116429
:102BF0000899CA6B42F27161C0F60001D16408996C
:102C0000C96B086507A8059008980168C06B043176
:102C1000059A1268BDF81A30FDF7D2FF58B1FFE7E8
:102C20000899102048640899202081F8420001206A
:102C30008DF827004EE0FFE7002004900898006818
:102C40000068049008980068406804900498FFE7C2
:102C500008980069A0B1FFE7FFE7FFE70898006860
:102C600050E8030F40F480700390FFE70399089841
:102C7000026842E803100028F0D1FFE7FFE7FFE712
:102C8000FFE7FFE70898006850E8050F40F00100F3
:102C90000290FFE702990898026842E805100028B0
:102CA000F0D1FFE7FFE7FFE7FFE70898006850E88B
:102CB000050F40F040000190FFE701990898026875
:102CC00042E805100028F0D1FFE7FFE700208DF86B
:102CD0002700FFE79DF827000AB080BD83B0019070
:102CE000019890F8410021283AD1FFE701988068C7
:102CF000B0F5805F13D1FFE70198006978B9FFE76D
:102D00000198006A0090009800886FF35F20019995
:102D1000096848600199086A0230086208E0019A6F
:102D2000106A411C11620078019909684860FFE748
:102D30000199C88C0138C884000468B9FFE701987C
:102D40000168C86820F08000C86001980168C86800
:102D500040F04000C860FFE700208DF80B0003E062
:102D600002208DF80B00FFE79DF80B0003B07047C1
:102D700080B540F2D000C2F20000FEF7D5FF80BD62
:102D8000FFE7FEE780B500F075F980BD85B00490DF
:102D90008DED030AADF80A10ADF80820CDED010A5B
:102DA0008DED001A9DED030ABDF80A1001EE101A10
:102DB000B8EEC11A30EE410A9DED002A9DED011AD0
:102DC00032EE412A20EE020ABDF80800401A02EE57
:102DD000100AB8EEC22A80EE020A30EE010A05B0EF
:102DE0007047000080B590B00F900E910F99079139
:102DF00040F23410C2F20000086000200D900C90E8
:102E00000B90FFE70B98052825DCFFE70E98DDF80F
:102E10002CE010F80E104FEACE026FF01F0000EB0E
:102E2000CE0001FA00FC2023A3EBCE0321FA03F32A
:102E3000002858BF634601FA02F2002858BF00225A
:102E40000C980D99194310430D910C90FFE70B98C6
:102E500001300B90D6E70798BDF830106FF3DF21F3
:102E6000ADF82A100C99C1F3CA21ADF828100C99BD
:102E70000D9A890D41EA82216FF3DF21ADF826100A
:102E80000D99C1F34A01ADF824100D99C1F3013138
:102E90008DF823100D99C1F381318DF82210BDF802
:102EA0002A1000EE101AB8EE400A4FF4B6710291E3
:102EB00040F294620392FFEE000ACDED040AB7EEF1
:102EC000001A8DED051AFFF761FF0299039ADDEDF7
:102ED000040A9DED051A079880ED010ABDF8283017
:102EE00000EE103AB8EE400AFFF750FF0299039A3D
:102EF000DDED040A9DED051A079880ED020ABDF884
:102F0000263000EE103AB8EE400AFFF73FFF029974
:102F1000039ADDED040A9DED051A079880ED030A7A
:102F2000BDF8243000EE103AB8EE400AFFF72EFF4D
:102F3000079880ED040A9DF82300014606910128B8
:102F400008D0FFE70698022808D0FFE70698032874
:102F500008D00BE007990020087507E007990220C8
:102F6000087503E0079901200875FFE79DF8220026
:102F700001460191012808D0FFE70198022808D0F6
:102F8000FFE70198032808D00BE007990020487557
:102F900007E007990220487503E00799012048756A
:102FA000FFE710B080BD000081B00090009801B034
:102FB0007047000081B08DF803009DF903000028E0
:102FC0000ED4FFE79DF9031001F01F02012090408D
:102FD0004A094EF20011CEF2000141F82200FFE74B
:102FE00001B070474EF60C50CEF200000068C0F3FE
:102FF0000220704782B08DF8070000919DF907000C
:1030000000280AD4FFE7009800019DF907104EF24E
:103010000042CEF2000288540BE0009800019DF8B7
:10302000071001F00F014EF61452CEF20002885440
:10303000FFE702B07047000083B00290029800F0F2
:10304000070000904EF60C51CEF200010868019086
:1030500001984FF6FF02104001900198009A40EA53
:1030600002200022C0F2FA52104301900198086039
:1030700003B0704780B540F21810C2F20000FFF7AD
:1030800093FF80BD80B582B000200190FDF7EAFF7C
:10309000FFF778FAFFF79AF9FFF77AF9FFF7DEF909
:1030A00040F2D000C2F2000040F23411C2F200013E
:1030B0001222FEF7B5FDFFE7FEE7F1EE100A4FF62C
:1030C000FF71C0F2C03120EA010040F04070E1EE33
:1030D000100A704700000000000000000102030415
:1030E000060708090000000001020304000610168C
:1030F0000006101618310008000000201000000023
:10310000C40100082831000810000020400700001A
:10311000E001000871FCFFFF0024F4000100000042
:08312000100000000000000097
:040000050800018965
:00000001FF
